:020000020000FC
:1000000000C061E080E091E030E037BD089A37B38E
:10001000346037BB32E03BBB33E83DBB3DB33064BB
:100020003DBB3DB336FDFDCF79B34AE2741773D0C3
:1000300010F471D02CC04AE6741710F46CD017C0BD
:100040004FEB741708F434C066D000C064D030E0C1
:100050006AD041E04EBD089A109A14EB22E04AD0D3
:100060005AD03FEF60D022E014EB4CD0D7CF35D040
:10007000362F59D032D0162F21E03CD02ED0362F3B
:1000800052D02BD0162F169521E034D0C7CF16E0D2
:1000900021E086BD90FD01C006C031E0830F30F441
:1000A00090E08FEF03C0815009F491E023D0B6CFE8
:1000B00034E039D018E721E01DD030EC34D021E015
:1000C00018E720D030E02FD018E721E013D03FEF21
:1000D0002AD022E014EB16D0A1CF30E063FD339597
:1000E00064FD339565FD339567FD33953170660F7B
:1000F000630F089500270A95F1F71A95E1F72A95FD
:10010000D1F70895002711270A95F1F71A95E1F71D
:100110002A95D1F7089531EC3EBD39E03DBD0895F3
:1001200031E03EBD089546B5431709F4089538F00F
:100130000DD00CD04A9546BD4317D1F7089506D08F
:1001400005D0439546BD4317D1F708955AB5506081
:0A0150005ABD5AB550FFFDCF0895C7
:00000001FF
